{
  "contractName": "Certificate",
  "abi": [
    {
      "inputs": [],
      "stateMutability": "nonpayable",
      "type": "constructor"
    },
    {
      "anonymous": false,
      "inputs": [
        {
          "indexed": true,
          "internalType": "address",
          "name": "account",
          "type": "address"
        },
        {
          "indexed": true,
          "internalType": "address",
          "name": "operator",
          "type": "address"
        },
        {
          "indexed": false,
          "internalType": "bool",
          "name": "approved",
          "type": "bool"
        }
      ],
      "name": "ApprovalForAll",
      "type": "event"
    },
    {
      "anonymous": false,
      "inputs": [
        {
          "indexed": true,
          "internalType": "address",
          "name": "previousOwner",
          "type": "address"
        },
        {
          "indexed": true,
          "internalType": "address",
          "name": "newOwner",
          "type": "address"
        }
      ],
      "name": "OwnershipTransferred",
      "type": "event"
    },
    {
      "anonymous": false,
      "inputs": [
        {
          "indexed": true,
          "internalType": "address",
          "name": "operator",
          "type": "address"
        },
        {
          "indexed": true,
          "internalType": "address",
          "name": "from",
          "type": "address"
        },
        {
          "indexed": true,
          "internalType": "address",
          "name": "to",
          "type": "address"
        },
        {
          "indexed": false,
          "internalType": "uint256[]",
          "name": "ids",
          "type": "uint256[]"
        },
        {
          "indexed": false,
          "internalType": "uint256[]",
          "name": "values",
          "type": "uint256[]"
        }
      ],
      "name": "TransferBatch",
      "type": "event"
    },
    {
      "anonymous": false,
      "inputs": [
        {
          "indexed": true,
          "internalType": "address",
          "name": "operator",
          "type": "address"
        },
        {
          "indexed": true,
          "internalType": "address",
          "name": "from",
          "type": "address"
        },
        {
          "indexed": true,
          "internalType": "address",
          "name": "to",
          "type": "address"
        },
        {
          "indexed": false,
          "internalType": "uint256",
          "name": "id",
          "type": "uint256"
        },
        {
          "indexed": false,
          "internalType": "uint256",
          "name": "value",
          "type": "uint256"
        }
      ],
      "name": "TransferSingle",
      "type": "event"
    },
    {
      "anonymous": false,
      "inputs": [
        {
          "indexed": false,
          "internalType": "string",
          "name": "value",
          "type": "string"
        },
        {
          "indexed": true,
          "internalType": "uint256",
          "name": "id",
          "type": "uint256"
        }
      ],
      "name": "URI",
      "type": "event"
    },
    {
      "inputs": [
        {
          "internalType": "address",
          "name": "account",
          "type": "address"
        },
        {
          "internalType": "uint256",
          "name": "id",
          "type": "uint256"
        }
      ],
      "name": "balanceOf",
      "outputs": [
        {
          "internalType": "uint256",
          "name": "",
          "type": "uint256"
        }
      ],
      "stateMutability": "view",
      "type": "function",
      "constant": true
    },
    {
      "inputs": [
        {
          "internalType": "address[]",
          "name": "accounts",
          "type": "address[]"
        },
        {
          "internalType": "uint256[]",
          "name": "ids",
          "type": "uint256[]"
        }
      ],
      "name": "balanceOfBatch",
      "outputs": [
        {
          "internalType": "uint256[]",
          "name": "",
          "type": "uint256[]"
        }
      ],
      "stateMutability": "view",
      "type": "function",
      "constant": true
    },
    {
      "inputs": [
        {
          "internalType": "uint256",
          "name": "",
          "type": "uint256"
        }
      ],
      "name": "counts",
      "outputs": [
        {
          "internalType": "uint256",
          "name": "",
          "type": "uint256"
        }
      ],
      "stateMutability": "view",
      "type": "function",
      "constant": true
    },
    {
      "inputs": [
        {
          "internalType": "address",
          "name": "account",
          "type": "address"
        },
        {
          "internalType": "address",
          "name": "operator",
          "type": "address"
        }
      ],
      "name": "isApprovedForAll",
      "outputs": [
        {
          "internalType": "bool",
          "name": "",
          "type": "bool"
        }
      ],
      "stateMutability": "view",
      "type": "function",
      "constant": true
    },
    {
      "inputs": [],
      "name": "owner",
      "outputs": [
        {
          "internalType": "address",
          "name": "",
          "type": "address"
        }
      ],
      "stateMutability": "view",
      "type": "function",
      "constant": true
    },
    {
      "inputs": [],
      "name": "renounceOwnership",
      "outputs": [],
      "stateMutability": "nonpayable",
      "type": "function"
    },
    {
      "inputs": [
        {
          "internalType": "address",
          "name": "from",
          "type": "address"
        },
        {
          "internalType": "address",
          "name": "to",
          "type": "address"
        },
        {
          "internalType": "uint256[]",
          "name": "ids",
          "type": "uint256[]"
        },
        {
          "internalType": "uint256[]",
          "name": "amounts",
          "type": "uint256[]"
        },
        {
          "internalType": "bytes",
          "name": "data",
          "type": "bytes"
        }
      ],
      "name": "safeBatchTransferFrom",
      "outputs": [],
      "stateMutability": "nonpayable",
      "type": "function"
    },
    {
      "inputs": [
        {
          "internalType": "address",
          "name": "from",
          "type": "address"
        },
        {
          "internalType": "address",
          "name": "to",
          "type": "address"
        },
        {
          "internalType": "uint256",
          "name": "id",
          "type": "uint256"
        },
        {
          "internalType": "uint256",
          "name": "amount",
          "type": "uint256"
        },
        {
          "internalType": "bytes",
          "name": "data",
          "type": "bytes"
        }
      ],
      "name": "safeTransferFrom",
      "outputs": [],
      "stateMutability": "nonpayable",
      "type": "function"
    },
    {
      "inputs": [
        {
          "internalType": "address",
          "name": "operator",
          "type": "address"
        },
        {
          "internalType": "bool",
          "name": "approved",
          "type": "bool"
        }
      ],
      "name": "setApprovalForAll",
      "outputs": [],
      "stateMutability": "nonpayable",
      "type": "function"
    },
    {
      "inputs": [
        {
          "internalType": "bytes4",
          "name": "interfaceId",
          "type": "bytes4"
        }
      ],
      "name": "supportsInterface",
      "outputs": [
        {
          "internalType": "bool",
          "name": "",
          "type": "bool"
        }
      ],
      "stateMutability": "view",
      "type": "function",
      "constant": true
    },
    {
      "inputs": [
        {
          "internalType": "uint256",
          "name": "",
          "type": "uint256"
        }
      ],
      "name": "tokenIds",
      "outputs": [
        {
          "internalType": "uint256",
          "name": "",
          "type": "uint256"
        }
      ],
      "stateMutability": "view",
      "type": "function",
      "constant": true
    },
    {
      "inputs": [
        {
          "internalType": "uint256",
          "name": "",
          "type": "uint256"
        }
      ],
      "name": "tokenSupply",
      "outputs": [
        {
          "internalType": "uint256",
          "name": "",
          "type": "uint256"
        }
      ],
      "stateMutability": "view",
      "type": "function",
      "constant": true
    },
    {
      "inputs": [
        {
          "internalType": "address",
          "name": "newOwner",
          "type": "address"
        }
      ],
      "name": "transferOwnership",
      "outputs": [],
      "stateMutability": "nonpayable",
      "type": "function"
    },
    {
      "inputs": [
        {
          "internalType": "uint256",
          "name": "tokenId",
          "type": "uint256"
        }
      ],
      "name": "uri",
      "outputs": [
        {
          "internalType": "string",
          "name": "",
          "type": "string"
        }
      ],
      "stateMutability": "view",
      "type": "function",
      "constant": true
    },
    {
      "inputs": [
        {
          "internalType": "uint256",
          "name": "id",
          "type": "uint256"
        },
        {
          "internalType": "uint256",
          "name": "supply",
          "type": "uint256"
        },
        {
          "internalType": "string",
          "name": "_uri",
          "type": "string"
        }
      ],
      "name": "create",
      "outputs": [
        {
          "internalType": "uint256",
          "name": "",
          "type": "uint256"
        }
      ],
      "stateMutability": "nonpayable",
      "type": "function"
    }
  ],
  "bytecode": "0x608060405260016005553480156200001657600080fd5b50604051806060016040528060228152602001620034806022913962000042816200006960201b60201c565b5062000063620000576200008560201b60201c565b6200008d60201b60201c565b62000267565b80600490805190602001906200008192919062000153565b5050565b600033905090565b6000600360009054906101000a900473ffffffffffffffffffffffffffffffffffffffff16905081600360006101000a81548173ffffffffffffffffffffffffffffffffffffffff021916908373ffffffffffffffffffffffffffffffffffffffff1602179055508173ffffffffffffffffffffffffffffffffffffffff168173ffffffffffffffffffffffffffffffffffffffff167f8be0079c531659141344cd1fd0a4f28419497f9722a3daafe3b4186f6b6457e060405160405180910390a35050565b828054620001619062000232565b90600052602060002090601f016020900481019282620001855760008555620001d1565b82601f10620001a057805160ff1916838001178555620001d1565b82800160010185558215620001d1579182015b82811115620001d0578251825591602001919060010190620001b3565b5b509050620001e09190620001e4565b5090565b5b80821115620001ff576000816000905550600101620001e5565b5090565b7f4e487b7100000000000000000000000000000000000000000000000000000000600052602260045260246000fd5b600060028204905060018216806200024b57607f821691505b60208210810362000261576200026062000203565b5b50919050565b61320980620002776000396000f3fe608060405234801561001057600080fd5b50600436106100f45760003560e01c8063715018a611610097578063dc715d1b11610066578063dc715d1b146102a9578063e985e9c5146102d9578063f242432a14610309578063f2fde38b14610325576100f4565b8063715018a6146102355780638da5cb5b1461023f578063a22cb4651461025d578063d58778d614610279576100f4565b80632693ebf2116100d35780632693ebf2146101895780632eb2c2d6146101b95780634b068c78146101d55780634e1273f414610205576100f4565b8062fdd58e146100f957806301ffc9a7146101295780630e89341c14610159575b600080fd5b610113600480360381019061010e9190611c45565b610341565b6040516101209190611c94565b60405180910390f35b610143600480360381019061013e9190611d07565b610409565b6040516101509190611d4f565b60405180910390f35b610173600480360381019061016e9190611d6a565b6104eb565b6040516101809190611e30565b60405180910390f35b6101a3600480360381019061019e9190611d6a565b6105d8565b6040516101b09190611c94565b60405180910390f35b6101d360048036038101906101ce919061204f565b6105f0565b005b6101ef60048036038101906101ea91906121bf565b610691565b6040516101fc9190611c94565b60405180910390f35b61021f600480360381019061021a91906122f1565b610832565b60405161022c9190612427565b60405180910390f35b61023d61094b565b005b6102476109d3565b6040516102549190612458565b60405180910390f35b6102776004803603810190610272919061249f565b6109fd565b005b610293600480360381019061028e9190611d6a565b610a13565b6040516102a09190611c94565b60405180910390f35b6102c360048036038101906102be9190611d6a565b610a2b565b6040516102d09190611c94565b60405180910390f35b6102f360048036038101906102ee91906124df565b610a43565b6040516103009190611d4f565b60405180910390f35b610323600480360381019061031e919061251f565b610ad7565b005b61033f600480360381019061033a91906125b6565b610b78565b005b60008073ffffffffffffffffffffffffffffffffffffffff168373ffffffffffffffffffffffffffffffffffffffff16036103b1576040517f08c379a00000000000000000000000000000000000000000000000000000000081526004016103a890612655565b60405180910390fd5b60008083815260200190815260200160002060008473ffffffffffffffffffffffffffffffffffffffff1673ffffffffffffffffffffffffffffffffffffffff16815260200190815260200160002054905092915050565b60007fd9b67a26000000000000000000000000000000000000000000000000000000007bffffffffffffffffffffffffffffffffffffffffffffffffffffffff1916827bffffffffffffffffffffffffffffffffffffffffffffffffffffffff191614806104d457507f0e89341c000000000000000000000000000000000000000000000000000000007bffffffffffffffffffffffffffffffffffffffffffffffffffffffff1916827bffffffffffffffffffffffffffffffffffffffffffffffffffffffff1916145b806104e457506104e382610c6f565b5b9050919050565b60606104f682610cd9565b610535576040517f08c379a000000000000000000000000000000000000000000000000000000000815260040161052c906126c1565b60405180910390fd5b60096000838152602001908152602001600020805461055390612710565b80601f016020809104026020016040519081016040528092919081815260200182805461057f90612710565b80156105cc5780601f106105a1576101008083540402835291602001916105cc565b820191906000526020600020905b8154815290600101906020018083116105af57829003601f168201915b50505050509050919050565b60086020528060005260406000206000915090505481565b6105f8610cf9565b73ffffffffffffffffffffffffffffffffffffffff168573ffffffffffffffffffffffffffffffffffffffff16148061063e575061063d85610638610cf9565b610a43565b5b61067d576040517f08c379a0000000000000000000000000000000000000000000000000000000008152600401610674906127b3565b60405180910390fd5b61068a8585858585610d01565b5050505050565b600061069b610cf9565b73ffffffffffffffffffffffffffffffffffffffff166106b96109d3565b73ffffffffffffffffffffffffffffffffffffffff161461070f576040517f08c379a00000000000000000000000000000000000000000000000000000000081526004016107069061281f565b60405180910390fd5b61071884610cd9565b15610758576040517f08c379a000000000000000000000000000000000000000000000000000000000815260040161074f9061288b565b60405180910390fd5b6000825111156107c35781600960008681526020019081526020016000209080519060200190610789929190611afa565b50837f6bb7ff708619ba0610cba295a58592e0451dee2622938c8755667688daf3529b836040516107ba9190611e30565b60405180910390a25b6107de33858560405180602001604052806000815250611022565b83600660006005548152602001908152602001600020819055506005600081548092919061080b906128da565b91905055508260086000868152602001908152602001600020819055508390509392505050565b60608151835114610878576040517f08c379a000000000000000000000000000000000000000000000000000000000815260040161086f90612994565b60405180910390fd5b6000835167ffffffffffffffff81111561089557610894611e57565b5b6040519080825280602002602001820160405280156108c35781602001602082028036833780820191505090505b50905060005b8451811015610940576109108582815181106108e8576108e76129b4565b5b6020026020010151858381518110610903576109026129b4565b5b6020026020010151610341565b828281518110610923576109226129b4565b5b60200260200101818152505080610939906128da565b90506108c9565b508091505092915050565b610953610cf9565b73ffffffffffffffffffffffffffffffffffffffff166109716109d3565b73ffffffffffffffffffffffffffffffffffffffff16146109c7576040517f08c379a00000000000000000000000000000000000000000000000000000000081526004016109be9061281f565b60405180910390fd5b6109d160006111d2565b565b6000600360009054906101000a900473ffffffffffffffffffffffffffffffffffffffff16905090565b610a0f610a08610cf9565b8383611298565b5050565b60066020528060005260406000206000915090505481565b60076020528060005260406000206000915090505481565b6000600160008473ffffffffffffffffffffffffffffffffffffffff1673ffffffffffffffffffffffffffffffffffffffff16815260200190815260200160002060008373ffffffffffffffffffffffffffffffffffffffff1673ffffffffffffffffffffffffffffffffffffffff16815260200190815260200160002060009054906101000a900460ff16905092915050565b610adf610cf9565b73ffffffffffffffffffffffffffffffffffffffff168573ffffffffffffffffffffffffffffffffffffffff161480610b255750610b2485610b1f610cf9565b610a43565b5b610b64576040517f08c379a0000000000000000000000000000000000000000000000000000000008152600401610b5b90612a55565b60405180910390fd5b610b718585858585611404565b5050505050565b610b80610cf9565b73ffffffffffffffffffffffffffffffffffffffff16610b9e6109d3565b73ffffffffffffffffffffffffffffffffffffffff1614610bf4576040517f08c379a0000000000000000000000000000000000000000000000000000000008152600401610beb9061281f565b60405180910390fd5b600073ffffffffffffffffffffffffffffffffffffffff168173ffffffffffffffffffffffffffffffffffffffff1603610c63576040517f08c379a0000000000000000000000000000000000000000000000000000000008152600401610c5a90612ae7565b60405180910390fd5b610c6c816111d2565b50565b60007f01ffc9a7000000000000000000000000000000000000000000000000000000007bffffffffffffffffffffffffffffffffffffffffffffffffffffffff1916827bffffffffffffffffffffffffffffffffffffffffffffffffffffffff1916149050919050565b600080600860008481526020019081526020016000205414159050919050565b600033905090565b8151835114610d45576040517f08c379a0000000000000000000000000000000000000000000000000000000008152600401610d3c90612b79565b60405180910390fd5b600073ffffffffffffffffffffffffffffffffffffffff168473ffffffffffffffffffffffffffffffffffffffff1603610db4576040517f08c379a0000000000000000000000000000000000000000000000000000000008152600401610dab90612c0b565b60405180910390fd5b6000610dbe610cf9565b9050610dce81878787878761169f565b60005b8451811015610f7f576000858281518110610def57610dee6129b4565b5b602002602001015190506000858381518110610e0e57610e0d6129b4565b5b60200260200101519050600080600084815260200190815260200160002060008b73ffffffffffffffffffffffffffffffffffffffff1673ffffffffffffffffffffffffffffffffffffffff16815260200190815260200160002054905081811015610eaf576040517f08c379a0000000000000000000000000000000000000000000000000000000008152600401610ea690612c9d565b60405180910390fd5b81810360008085815260200190815260200160002060008c73ffffffffffffffffffffffffffffffffffffffff1673ffffffffffffffffffffffffffffffffffffffff168152602001908152602001600020819055508160008085815260200190815260200160002060008b73ffffffffffffffffffffffffffffffffffffffff1673ffffffffffffffffffffffffffffffffffffffff1681526020019081526020016000206000828254610f649190612cbd565b9250508190555050505080610f78906128da565b9050610dd1565b508473ffffffffffffffffffffffffffffffffffffffff168673ffffffffffffffffffffffffffffffffffffffff168273ffffffffffffffffffffffffffffffffffffffff167f4a39dc06d4c0dbc64b70af90fd698a233a518aa5d07e595d983b8c0526c8f7fb8787604051610ff6929190612d13565b60405180910390a461100c8187878787876116a7565b61101a8187878787876116af565b505050505050565b600073ffffffffffffffffffffffffffffffffffffffff168473ffffffffffffffffffffffffffffffffffffffff1603611091576040517f08c379a000000000000000000000000000000000000000000000000000000000815260040161108890612dbc565b60405180910390fd5b600061109b610cf9565b905060006110a885611886565b905060006110b585611886565b90506110c68360008985858961169f565b8460008088815260200190815260200160002060008973ffffffffffffffffffffffffffffffffffffffff1673ffffffffffffffffffffffffffffffffffffffff16815260200190815260200160002060008282546111259190612cbd565b925050819055508673ffffffffffffffffffffffffffffffffffffffff16600073ffffffffffffffffffffffffffffffffffffffff168473ffffffffffffffffffffffffffffffffffffffff167fc3d58168c5ae7397731d063d5bbf3d657854427343f4c083240f7aacaa2d0f6289896040516111a3929190612ddc565b60405180910390a46111ba836000898585896116a7565b6111c983600089898989611900565b50505050505050565b6000600360009054906101000a900473ffffffffffffffffffffffffffffffffffffffff16905081600360006101000a81548173ffffffffffffffffffffffffffffffffffffffff021916908373ffffffffffffffffffffffffffffffffffffffff1602179055508173ffffffffffffffffffffffffffffffffffffffff168173ffffffffffffffffffffffffffffffffffffffff167f8be0079c531659141344cd1fd0a4f28419497f9722a3daafe3b4186f6b6457e060405160405180910390a35050565b8173ffffffffffffffffffffffffffffffffffffffff168373ffffffffffffffffffffffffffffffffffffffff1603611306576040517f08c379a00000000000000000000000000000000000000000000000000000000081526004016112fd90612e77565b60405180910390fd5b80600160008573ffffffffffffffffffffffffffffffffffffffff1673ffffffffffffffffffffffffffffffffffffffff16815260200190815260200160002060008473ffffffffffffffffffffffffffffffffffffffff1673ffffffffffffffffffffffffffffffffffffffff16815260200190815260200160002060006101000a81548160ff0219169083151502179055508173ffffffffffffffffffffffffffffffffffffffff168373ffffffffffffffffffffffffffffffffffffffff167f17307eab39ab6107e8899845ad3d59bd9653f200f220920489ca2b5937696c31836040516113f79190611d4f565b60405180910390a3505050565b600073ffffffffffffffffffffffffffffffffffffffff168473ffffffffffffffffffffffffffffffffffffffff1603611473576040517f08c379a000000000000000000000000000000000000000000000000000000000815260040161146a90612c0b565b60405180910390fd5b600061147d610cf9565b9050600061148a85611886565b9050600061149785611886565b90506114a783898985858961169f565b600080600088815260200190815260200160002060008a73ffffffffffffffffffffffffffffffffffffffff1673ffffffffffffffffffffffffffffffffffffffff1681526020019081526020016000205490508581101561153e576040517f08c379a000000000000000000000000000000000000000000000000000000000815260040161153590612c9d565b60405180910390fd5b85810360008089815260200190815260200160002060008b73ffffffffffffffffffffffffffffffffffffffff1673ffffffffffffffffffffffffffffffffffffffff168152602001908152602001600020819055508560008089815260200190815260200160002060008a73ffffffffffffffffffffffffffffffffffffffff1673ffffffffffffffffffffffffffffffffffffffff16815260200190815260200160002060008282546115f39190612cbd565b925050819055508773ffffffffffffffffffffffffffffffffffffffff168973ffffffffffffffffffffffffffffffffffffffff168573ffffffffffffffffffffffffffffffffffffffff167fc3d58168c5ae7397731d063d5bbf3d657854427343f4c083240f7aacaa2d0f628a8a604051611670929190612ddc565b60405180910390a4611686848a8a86868a6116a7565b611694848a8a8a8a8a611900565b505050505050505050565b505050505050565b505050505050565b6116ce8473ffffffffffffffffffffffffffffffffffffffff16611ad7565b1561187e578373ffffffffffffffffffffffffffffffffffffffff1663bc197c8187878686866040518663ffffffff1660e01b8152600401611714959493929190612eec565b6020604051808303816000875af192505050801561175057506040513d601f19601f8201168201806040525081019061174d9190612f69565b60015b6117f55761175c612fa3565b806308c379a0036117b85750611770612fc5565b8061177b57506117ba565b806040517f08c379a00000000000000000000000000000000000000000000000000000000081526004016117af9190611e30565b60405180910390fd5b505b6040517f08c379a00000000000000000000000000000000000000000000000000000000081526004016117ec906130c7565b60405180910390fd5b63bc197c8160e01b7bffffffffffffffffffffffffffffffffffffffffffffffffffffffff1916817bffffffffffffffffffffffffffffffffffffffffffffffffffffffff19161461187c576040517f08c379a000000000000000000000000000000000000000000000000000000000815260040161187390613159565b60405180910390fd5b505b505050505050565b60606000600167ffffffffffffffff8111156118a5576118a4611e57565b5b6040519080825280602002602001820160405280156118d35781602001602082028036833780820191505090505b50905082816000815181106118eb576118ea6129b4565b5b60200260200101818152505080915050919050565b61191f8473ffffffffffffffffffffffffffffffffffffffff16611ad7565b15611acf578373ffffffffffffffffffffffffffffffffffffffff1663f23a6e6187878686866040518663ffffffff1660e01b8152600401611965959493929190613179565b6020604051808303816000875af19250505080156119a157506040513d601f19601f8201168201806040525081019061199e9190612f69565b60015b611a46576119ad612fa3565b806308c379a003611a0957506119c1612fc5565b806119cc5750611a0b565b806040517f08c379a0000000000000000000000000000000000000000000000000000000008152600401611a009190611e30565b60405180910390fd5b505b6040517f08c379a0000000000000000000000000000000000000000000000000000000008152600401611a3d906130c7565b60405180910390fd5b63f23a6e6160e01b7bffffffffffffffffffffffffffffffffffffffffffffffffffffffff1916817bffffffffffffffffffffffffffffffffffffffffffffffffffffffff191614611acd576040517f08c379a0000000000000000000000000000000000000000000000000000000008152600401611ac490613159565b60405180910390fd5b505b505050505050565b6000808273ffffffffffffffffffffffffffffffffffffffff163b119050919050565b828054611b0690612710565b90600052602060002090601f016020900481019282611b285760008555611b6f565b82601f10611b4157805160ff1916838001178555611b6f565b82800160010185558215611b6f579182015b82811115611b6e578251825591602001919060010190611b53565b5b509050611b7c9190611b80565b5090565b5b80821115611b99576000816000905550600101611b81565b5090565b6000604051905090565b600080fd5b600080fd5b600073ffffffffffffffffffffffffffffffffffffffff82169050919050565b6000611bdc82611bb1565b9050919050565b611bec81611bd1565b8114611bf757600080fd5b50565b600081359050611c0981611be3565b92915050565b6000819050919050565b611c2281611c0f565b8114611c2d57600080fd5b50565b600081359050611c3f81611c19565b92915050565b60008060408385031215611c5c57611c5b611ba7565b5b6000611c6a85828601611bfa565b9250506020611c7b85828601611c30565b9150509250929050565b611c8e81611c0f565b82525050565b6000602082019050611ca96000830184611c85565b92915050565b60007fffffffff0000000000000000000000000000000000000000000000000000000082169050919050565b611ce481611caf565b8114611cef57600080fd5b50565b600081359050611d0181611cdb565b92915050565b600060208284031215611d1d57611d1c611ba7565b5b6000611d2b84828501611cf2565b91505092915050565b60008115159050919050565b611d4981611d34565b82525050565b6000602082019050611d646000830184611d40565b92915050565b600060208284031215611d8057611d7f611ba7565b5b6000611d8e84828501611c30565b91505092915050565b600081519050919050565b600082825260208201905092915050565b60005b83811015611dd1578082015181840152602081019050611db6565b83811115611de0576000848401525b50505050565b6000601f19601f8301169050919050565b6000611e0282611d97565b611e0c8185611da2565b9350611e1c818560208601611db3565b611e2581611de6565b840191505092915050565b60006020820190508181036000830152611e4a8184611df7565b905092915050565b600080fd5b7f4e487b7100000000000000000000000000000000000000000000000000000000600052604160045260246000fd5b611e8f82611de6565b810181811067ffffffffffffffff82111715611eae57611ead611e57565b5b80604052505050565b6000611ec1611b9d565b9050611ecd8282611e86565b919050565b600067ffffffffffffffff821115611eed57611eec611e57565b5b602082029050602081019050919050565b600080fd5b6000611f16611f1184611ed2565b611eb7565b90508083825260208201905060208402830185811115611f3957611f38611efe565b5b835b81811015611f625780611f4e8882611c30565b845260208401935050602081019050611f3b565b5050509392505050565b600082601f830112611f8157611f80611e52565b5b8135611f91848260208601611f03565b91505092915050565b600080fd5b600067ffffffffffffffff821115611fba57611fb9611e57565b5b611fc382611de6565b9050602081019050919050565b82818337600083830152505050565b6000611ff2611fed84611f9f565b611eb7565b90508281526020810184848401111561200e5761200d611f9a565b5b612019848285611fd0565b509392505050565b600082601f83011261203657612035611e52565b5b8135612046848260208601611fdf565b91505092915050565b600080600080600060a0868803121561206b5761206a611ba7565b5b600061207988828901611bfa565b955050602061208a88828901611bfa565b945050604086013567ffffffffffffffff8111156120ab576120aa611bac565b5b6120b788828901611f6c565b935050606086013567ffffffffffffffff8111156120d8576120d7611bac565b5b6120e488828901611f6c565b925050608086013567ffffffffffffffff81111561210557612104611bac565b5b61211188828901612021565b9150509295509295909350565b600067ffffffffffffffff82111561213957612138611e57565b5b61214282611de6565b9050602081019050919050565b600061216261215d8461211e565b611eb7565b90508281526020810184848401111561217e5761217d611f9a565b5b612189848285611fd0565b509392505050565b600082601f8301126121a6576121a5611e52565b5b81356121b684826020860161214f565b91505092915050565b6000806000606084860312156121d8576121d7611ba7565b5b60006121e686828701611c30565b93505060206121f786828701611c30565b925050604084013567ffffffffffffffff81111561221857612217611bac565b5b61222486828701612191565b9150509250925092565b600067ffffffffffffffff82111561224957612248611e57565b5b602082029050602081019050919050565b600061226d6122688461222e565b611eb7565b905080838252602082019050602084028301858111156122905761228f611efe565b5b835b818110156122b957806122a58882611bfa565b845260208401935050602081019050612292565b5050509392505050565b600082601f8301126122d8576122d7611e52565b5b81356122e884826020860161225a565b91505092915050565b6000806040838503121561230857612307611ba7565b5b600083013567ffffffffffffffff81111561232657612325611bac565b5b612332858286016122c3565b925050602083013567ffffffffffffffff81111561235357612352611bac565b5b61235f85828601611f6c565b9150509250929050565b600081519050919050565b600082825260208201905092915050565b6000819050602082019050919050565b61239e81611c0f565b82525050565b60006123b08383612395565b60208301905092915050565b6000602082019050919050565b60006123d482612369565b6123de8185612374565b93506123e983612385565b8060005b8381101561241a57815161240188826123a4565b975061240c836123bc565b9250506001810190506123ed565b5085935050505092915050565b6000602082019050818103600083015261244181846123c9565b905092915050565b61245281611bd1565b82525050565b600060208201905061246d6000830184612449565b92915050565b61247c81611d34565b811461248757600080fd5b50565b60008135905061249981612473565b92915050565b600080604083850312156124b6576124b5611ba7565b5b60006124c485828601611bfa565b92505060206124d58582860161248a565b9150509250929050565b600080604083850312156124f6576124f5611ba7565b5b600061250485828601611bfa565b925050602061251585828601611bfa565b9150509250929050565b600080600080600060a0868803121561253b5761253a611ba7565b5b600061254988828901611bfa565b955050602061255a88828901611bfa565b945050604061256b88828901611c30565b935050606061257c88828901611c30565b925050608086013567ffffffffffffffff81111561259d5761259c611bac565b5b6125a988828901612021565b9150509295509295909350565b6000602082840312156125cc576125cb611ba7565b5b60006125da84828501611bfa565b91505092915050565b7f455243313135353a2062616c616e636520717565727920666f7220746865207a60008201527f65726f2061646472657373000000000000000000000000000000000000000000602082015250565b600061263f602b83611da2565b915061264a826125e3565b604082019050919050565b6000602082019050818103600083015261266e81612632565b9050919050565b7f546f6b656e20696420646f65736e277420657869737400000000000000000000600082015250565b60006126ab601683611da2565b91506126b682612675565b602082019050919050565b600060208201905081810360008301526126da8161269e565b9050919050565b7f4e487b7100000000000000000000000000000000000000000000000000000000600052602260045260246000fd5b6000600282049050600182168061272857607f821691505b60208210810361273b5761273a6126e1565b5b50919050565b7f455243313135353a207472616e736665722063616c6c6572206973206e6f742060008201527f6f776e6572206e6f7220617070726f7665640000000000000000000000000000602082015250565b600061279d603283611da2565b91506127a882612741565b604082019050919050565b600060208201905081810360008301526127cc81612790565b9050919050565b7f4f776e61626c653a2063616c6c6572206973206e6f7420746865206f776e6572600082015250565b6000612809602083611da2565b9150612814826127d3565b602082019050919050565b60006020820190508181036000830152612838816127fc565b9050919050565b7f746f6b656e205f696420616c7265616479206578697374730000000000000000600082015250565b6000612875601883611da2565b91506128808261283f565b602082019050919050565b600060208201905081810360008301526128a481612868565b9050919050565b7f4e487b7100000000000000000000000000000000000000000000000000000000600052601160045260246000fd5b60006128e582611c0f565b91507fffffffffffffffffffffffffffffffffffffffffffffffffffffffffffffffff8203612917576129166128ab565b5b600182019050919050565b7f455243313135353a206163636f756e747320616e6420696473206c656e67746860008201527f206d69736d617463680000000000000000000000000000000000000000000000602082015250565b600061297e602983611da2565b915061298982612922565b604082019050919050565b600060208201905081810360008301526129ad81612971565b9050919050565b7f4e487b7100000000000000000000000000000000000000000000000000000000600052603260045260246000fd5b7f455243313135353a2063616c6c6572206973206e6f74206f776e6572206e6f7260008201527f20617070726f7665640000000000000000000000000000000000000000000000602082015250565b6000612a3f602983611da2565b9150612a4a826129e3565b604082019050919050565b60006020820190508181036000830152612a6e81612a32565b9050919050565b7f4f776e61626c653a206e6577206f776e657220697320746865207a65726f206160008201527f6464726573730000000000000000000000000000000000000000000000000000602082015250565b6000612ad1602683611da2565b9150612adc82612a75565b604082019050919050565b60006020820190508181036000830152612b0081612ac4565b9050919050565b7f455243313135353a2069647320616e6420616d6f756e7473206c656e6774682060008201527f6d69736d61746368000000000000000000000000000000000000000000000000602082015250565b6000612b63602883611da2565b9150612b6e82612b07565b604082019050919050565b60006020820190508181036000830152612b9281612b56565b9050919050565b7f455243313135353a207472616e7366657220746f20746865207a65726f20616460008201527f6472657373000000000000000000000000000000000000000000000000000000602082015250565b6000612bf5602583611da2565b9150612c0082612b99565b604082019050919050565b60006020820190508181036000830152612c2481612be8565b9050919050565b7f455243313135353a20696e73756666696369656e742062616c616e636520666f60008201527f72207472616e7366657200000000000000000000000000000000000000000000602082015250565b6000612c87602a83611da2565b9150612c9282612c2b565b604082019050919050565b60006020820190508181036000830152612cb681612c7a565b9050919050565b6000612cc882611c0f565b9150612cd383611c0f565b9250827fffffffffffffffffffffffffffffffffffffffffffffffffffffffffffffffff03821115612d0857612d076128ab565b5b828201905092915050565b60006040820190508181036000830152612d2d81856123c9565b90508181036020830152612d4181846123c9565b90509392505050565b7f455243313135353a206d696e7420746f20746865207a65726f2061646472657360008201527f7300000000000000000000000000000000000000000000000000000000000000602082015250565b6000612da6602183611da2565b9150612db182612d4a565b604082019050919050565b60006020820190508181036000830152612dd581612d99565b9050919050565b6000604082019050612df16000830185611c85565b612dfe6020830184611c85565b9392505050565b7f455243313135353a2073657474696e6720617070726f76616c2073746174757360008201527f20666f722073656c660000000000000000000000000000000000000000000000602082015250565b6000612e61602983611da2565b9150612e6c82612e05565b604082019050919050565b60006020820190508181036000830152612e9081612e54565b9050919050565b600081519050919050565b600082825260208201905092915050565b6000612ebe82612e97565b612ec88185612ea2565b9350612ed8818560208601611db3565b612ee181611de6565b840191505092915050565b600060a082019050612f016000830188612449565b612f0e6020830187612449565b8181036040830152612f2081866123c9565b90508181036060830152612f3481856123c9565b90508181036080830152612f488184612eb3565b90509695505050505050565b600081519050612f6381611cdb565b92915050565b600060208284031215612f7f57612f7e611ba7565b5b6000612f8d84828501612f54565b91505092915050565b60008160e01c9050919050565b600060033d1115612fc25760046000803e612fbf600051612f96565b90505b90565b600060443d1061305257612fd7611b9d565b60043d036004823e80513d602482011167ffffffffffffffff82111715612fff575050613052565b808201805167ffffffffffffffff81111561301d5750505050613052565b80602083010160043d03850181111561303a575050505050613052565b61304982602001850186611e86565b82955050505050505b90565b7f455243313135353a207472616e7366657220746f206e6f6e204552433131353560008201527f526563656976657220696d706c656d656e746572000000000000000000000000602082015250565b60006130b1603483611da2565b91506130bc82613055565b604082019050919050565b600060208201905081810360008301526130e0816130a4565b9050919050565b7f455243313135353a204552433131353552656365697665722072656a6563746560008201527f6420746f6b656e73000000000000000000000000000000000000000000000000602082015250565b6000613143602883611da2565b915061314e826130e7565b604082019050919050565b6000602082019050818103600083015261317281613136565b9050919050565b600060a08201905061318e6000830188612449565b61319b6020830187612449565b6131a86040830186611c85565b6131b56060830185611c85565b81810360808301526131c78184612eb3565b9050969550505050505056fea264697066735822122060ab78aba53071d3a0ca889d65d14ea04e453443cce39d8dedb9708039dcbee564736f6c634300080d003368747470733a2f2f676174657761792e70696e6174612e636c6f75642f697066732f",
  "immutableReferences": {},
  "source": "// SPDX-License-Identifier: MIT\r\npragma solidity ^0.8.0;\r\n\r\nimport \"@openzeppelin/contracts/token/ERC1155/ERC1155.sol\";\r\nimport \"@openzeppelin/contracts/token/ERC1155/extensions/ERC1155URIStorage.sol\";\r\nimport \"@openzeppelin/contracts/access/Ownable.sol\";\r\n\r\ncontract Certificate is ERC1155, Ownable {\r\n    string private _tokenURI;\r\n    uint256 private idCount = 1;\r\n\r\n    // Mapping from idcount to tokenid\r\n    mapping(uint256 => uint256) public tokenIds;\r\n    \r\n    // Mapping from tokenid to count\r\n    mapping(uint256 => uint256) public counts; \r\n    \r\n    // Mapping for token supply\r\n    mapping(uint256 => uint256) public tokenSupply;\r\n\r\n    // Mapping for tokenUri for each tokenid\r\n    mapping(uint256 => string) private tokenURIs;\r\n\r\n\r\n    constructor() ERC1155(\"https://gateway.pinata.cloud/ipfs/\") {\r\n        \r\n    }\r\n\r\n    function _setURI(string memory newuri) internal override virtual {\r\n        _tokenURI = newuri;\r\n    }\r\n\r\n    // /**\r\n    //  * @dev Sets `tokenURI` as the tokenURI of `tokenId`.\r\n    //  */\r\n    function uri(uint256 tokenId) public override view virtual returns (string memory) {\r\n        require( _exists(tokenId) , \"Token id doesn't exist\");\r\n        return tokenURIs[tokenId];\r\n    }\r\n\r\n    function create(\r\n        uint256 id,\r\n        uint256 supply,\r\n        string memory _uri\r\n    ) public onlyOwner returns (uint256) {\r\n        require( !_exists(id) , \"token _id already exists\");\r\n\r\n        if (bytes(_uri).length > 0) {\r\n            tokenURIs[id] = _uri;\r\n            emit URI(_uri, id);\r\n        }\r\n\r\n        _mint(msg.sender, id, supply, \"\");\r\n\r\n        tokenIds[idCount] = id;\r\n        idCount++;\r\n        tokenSupply[id] = supply;\r\n        return id;\r\n    }\r\n\r\n    /**\r\n    * @dev Returns whether the specified token exists by checking to see if it has a creator\r\n    * @param _id uint256 ID of the token to query the existence of\r\n    * @return bool whether the token exists\r\n    */\r\n    function _exists(\r\n        uint256 _id\r\n    ) internal view returns (bool) {\r\n        return tokenSupply[_id] != 0;\r\n    }\r\n\r\n}",
  "sourcePath": "C:\\My Projects\\attest\\smart_contracts\\lvNFT\\contracts\\Certificate.sol",
  "compiler": {
    "name": "solc",
    "version": "0.8.13+commit.abaa5c0e.Emscripten.clang"
  },
  "schemaVersion": "3.4.7",
  "updatedAt": "2022-10-06T13:50:31.451Z",
  "networkType": "ethereum",
  "devdoc": {
    "kind": "dev",
    "methods": {
      "balanceOf(address,uint256)": {
        "details": "See {IERC1155-balanceOf}. Requirements: - `account` cannot be the zero address."
      },
      "balanceOfBatch(address[],uint256[])": {
        "details": "See {IERC1155-balanceOfBatch}. Requirements: - `accounts` and `ids` must have the same length."
      },
      "isApprovedForAll(address,address)": {
        "details": "See {IERC1155-isApprovedForAll}."
      },
      "owner()": {
        "details": "Returns the address of the current owner."
      },
      "renounceOwnership()": {
        "details": "Leaves the contract without owner. It will not be possible to call `onlyOwner` functions anymore. Can only be called by the current owner. NOTE: Renouncing ownership will leave the contract without an owner, thereby removing any functionality that is only available to the owner."
      },
      "safeBatchTransferFrom(address,address,uint256[],uint256[],bytes)": {
        "details": "See {IERC1155-safeBatchTransferFrom}."
      },
      "safeTransferFrom(address,address,uint256,uint256,bytes)": {
        "details": "See {IERC1155-safeTransferFrom}."
      },
      "setApprovalForAll(address,bool)": {
        "details": "See {IERC1155-setApprovalForAll}."
      },
      "supportsInterface(bytes4)": {
        "details": "See {IERC165-supportsInterface}."
      },
      "transferOwnership(address)": {
        "details": "Transfers ownership of the contract to a new account (`newOwner`). Can only be called by the current owner."
      }
    },
    "version": 1
  },
  "userdoc": {
    "kind": "user",
    "methods": {},
    "version": 1
  }
}