{
  "contractName": "Marketplace",
  "abi": [
    {
      "inputs": [
        {
          "internalType": "uint256",
          "name": "_feePercent",
          "type": "uint256"
        }
      ],
      "stateMutability": "nonpayable",
      "type": "constructor"
    },
    {
      "anonymous": false,
      "inputs": [
        {
          "indexed": false,
          "internalType": "uint256",
          "name": "itemId",
          "type": "uint256"
        },
        {
          "indexed": true,
          "internalType": "address",
          "name": "nft",
          "type": "address"
        },
        {
          "indexed": false,
          "internalType": "uint256",
          "name": "tokenId",
          "type": "uint256"
        },
        {
          "indexed": false,
          "internalType": "uint256",
          "name": "price",
          "type": "uint256"
        },
        {
          "indexed": true,
          "internalType": "address",
          "name": "seller",
          "type": "address"
        },
        {
          "indexed": true,
          "internalType": "address",
          "name": "buyer",
          "type": "address"
        }
      ],
      "name": "Bought",
      "type": "event"
    },
    {
      "anonymous": false,
      "inputs": [
        {
          "indexed": false,
          "internalType": "uint256",
          "name": "itemId",
          "type": "uint256"
        },
        {
          "indexed": true,
          "internalType": "address",
          "name": "nft",
          "type": "address"
        },
        {
          "indexed": false,
          "internalType": "uint256",
          "name": "tokenId",
          "type": "uint256"
        },
        {
          "indexed": false,
          "internalType": "uint256",
          "name": "price",
          "type": "uint256"
        },
        {
          "indexed": true,
          "internalType": "address",
          "name": "seller",
          "type": "address"
        }
      ],
      "name": "Offered",
      "type": "event"
    },
    {
      "inputs": [],
      "name": "feeAccount",
      "outputs": [
        {
          "internalType": "address payable",
          "name": "",
          "type": "address"
        }
      ],
      "stateMutability": "view",
      "type": "function"
    },
    {
      "inputs": [],
      "name": "feePercent",
      "outputs": [
        {
          "internalType": "uint256",
          "name": "",
          "type": "uint256"
        }
      ],
      "stateMutability": "view",
      "type": "function"
    },
    {
      "inputs": [],
      "name": "itemCount",
      "outputs": [
        {
          "internalType": "uint256",
          "name": "",
          "type": "uint256"
        }
      ],
      "stateMutability": "view",
      "type": "function"
    },
    {
      "inputs": [
        {
          "internalType": "uint256",
          "name": "",
          "type": "uint256"
        }
      ],
      "name": "items",
      "outputs": [
        {
          "internalType": "uint256",
          "name": "itemId",
          "type": "uint256"
        },
        {
          "internalType": "contract IERC1155",
          "name": "certificate",
          "type": "address"
        },
        {
          "internalType": "uint256",
          "name": "tokenId",
          "type": "uint256"
        },
        {
          "internalType": "uint256",
          "name": "price",
          "type": "uint256"
        },
        {
          "internalType": "address payable",
          "name": "seller",
          "type": "address"
        },
        {
          "internalType": "uint256",
          "name": "stock",
          "type": "uint256"
        }
      ],
      "stateMutability": "view",
      "type": "function"
    },
    {
      "inputs": [
        {
          "internalType": "address",
          "name": "",
          "type": "address"
        },
        {
          "internalType": "address",
          "name": "",
          "type": "address"
        },
        {
          "internalType": "uint256[]",
          "name": "",
          "type": "uint256[]"
        },
        {
          "internalType": "uint256[]",
          "name": "",
          "type": "uint256[]"
        },
        {
          "internalType": "bytes",
          "name": "",
          "type": "bytes"
        }
      ],
      "name": "onERC1155BatchReceived",
      "outputs": [
        {
          "internalType": "bytes4",
          "name": "",
          "type": "bytes4"
        }
      ],
      "stateMutability": "nonpayable",
      "type": "function"
    },
    {
      "inputs": [
        {
          "internalType": "address",
          "name": "",
          "type": "address"
        },
        {
          "internalType": "address",
          "name": "",
          "type": "address"
        },
        {
          "internalType": "uint256",
          "name": "",
          "type": "uint256"
        },
        {
          "internalType": "uint256",
          "name": "",
          "type": "uint256"
        },
        {
          "internalType": "bytes",
          "name": "",
          "type": "bytes"
        }
      ],
      "name": "onERC1155Received",
      "outputs": [
        {
          "internalType": "bytes4",
          "name": "",
          "type": "bytes4"
        }
      ],
      "stateMutability": "nonpayable",
      "type": "function"
    },
    {
      "inputs": [
        {
          "internalType": "bytes4",
          "name": "interfaceId",
          "type": "bytes4"
        }
      ],
      "name": "supportsInterface",
      "outputs": [
        {
          "internalType": "bool",
          "name": "",
          "type": "bool"
        }
      ],
      "stateMutability": "view",
      "type": "function"
    },
    {
      "inputs": [
        {
          "internalType": "contract IERC1155",
          "name": "certificate",
          "type": "address"
        },
        {
          "internalType": "uint256",
          "name": "tokenId",
          "type": "uint256"
        },
        {
          "internalType": "uint256",
          "name": "price",
          "type": "uint256"
        },
        {
          "internalType": "uint256",
          "name": "amount",
          "type": "uint256"
        }
      ],
      "name": "makeItem",
      "outputs": [],
      "stateMutability": "nonpayable",
      "type": "function"
    },
    {
      "inputs": [
        {
          "internalType": "uint256",
          "name": "itemId",
          "type": "uint256"
        },
        {
          "internalType": "uint256",
          "name": "amount",
          "type": "uint256"
        }
      ],
      "name": "purchaseItem",
      "outputs": [],
      "stateMutability": "payable",
      "type": "function"
    },
    {
      "inputs": [
        {
          "internalType": "uint256",
          "name": "itemId",
          "type": "uint256"
        }
      ],
      "name": "getTotalPrice",
      "outputs": [
        {
          "internalType": "uint256",
          "name": "",
          "type": "uint256"
        }
      ],
      "stateMutability": "view",
      "type": "function"
    }
  ],
  "bytecode": "0x60c06040523480156200001157600080fd5b50604051620018a0380380620018a08339818101604052810190620000379190620000c2565b60016000819055503373ffffffffffffffffffffffffffffffffffffffff1660808173ffffffffffffffffffffffffffffffffffffffff16815250508060a0818152505050620000f4565b600080fd5b6000819050919050565b6200009c8162000087565b8114620000a857600080fd5b50565b600081519050620000bc8162000091565b92915050565b600060208284031215620000db57620000da62000082565b5b6000620000eb84828501620000ab565b91505092915050565b60805160a05161177f62000121600039600081816105f301526106ac0152600061030e015261177f6000f3fe6080604052600436106100915760003560e01c8063bc197c8111610059578063bc197c811461017d578063bfb231d2146101ba578063ca7dd375146101fc578063e067569814610239578063f23a6e611461025557610091565b806301ffc9a71461009657806365e17c9d146100d3578063696aae08146100fe5780636bfb0d01146101275780637fd6f15c14610152575b600080fd5b3480156100a257600080fd5b506100bd60048036038101906100b89190610b8e565b610292565b6040516100ca9190610bd6565b60405180910390f35b3480156100df57600080fd5b506100e861030c565b6040516100f59190610c32565b60405180910390f35b34801561010a57600080fd5b5061012560048036038101906101209190610cd3565b610330565b005b34801561013357600080fd5b5061013c6105eb565b6040516101499190610d49565b60405180910390f35b34801561015e57600080fd5b506101676105f1565b6040516101749190610d49565b60405180910390f35b34801561018957600080fd5b506101a4600480360381019061019f9190610f9e565b610615565b6040516101b1919061107c565b60405180910390f35b3480156101c657600080fd5b506101e160048036038101906101dc9190611097565b61062a565b6040516101f396959493929190611123565b60405180910390f35b34801561020857600080fd5b50610223600480360381019061021e9190611097565b6106a6565b6040516102309190610d49565b60405180910390f35b610253600480360381019061024e9190611184565b610709565b005b34801561026157600080fd5b5061027c600480360381019061027791906111c4565b610aa3565b604051610289919061107c565b60405180910390f35b60007f4e2312e0000000000000000000000000000000000000000000000000000000007bffffffffffffffffffffffffffffffffffffffffffffffffffffffff1916827bffffffffffffffffffffffffffffffffffffffffffffffffffffffff19161480610305575061030482610ab8565b5b9050919050565b7f000000000000000000000000000000000000000000000000000000000000000081565b600260005403610375576040517f08c379a000000000000000000000000000000000000000000000000000000000815260040161036c906112b8565b60405180910390fd5b6002600081905550600082116103c0576040517f08c379a00000000000000000000000000000000000000000000000000000000081526004016103b790611324565b60405180910390fd5b600160008154809291906103d390611373565b91905055508373ffffffffffffffffffffffffffffffffffffffff1663f242432a333086856040518563ffffffff1660e01b81526004016104179493929190611401565b600060405180830381600087803b15801561043157600080fd5b505af1158015610445573d6000803e3d6000fd5b505050506040518060c0016040528060015481526020018573ffffffffffffffffffffffffffffffffffffffff1681526020018481526020018381526020013373ffffffffffffffffffffffffffffffffffffffff168152602001828152506002600060015481526020019081526020016000206000820151816000015560208201518160010160006101000a81548173ffffffffffffffffffffffffffffffffffffffff021916908373ffffffffffffffffffffffffffffffffffffffff160217905550604082015181600201556060820151816003015560808201518160040160006101000a81548173ffffffffffffffffffffffffffffffffffffffff021916908373ffffffffffffffffffffffffffffffffffffffff16021790555060a082015181600501559050503373ffffffffffffffffffffffffffffffffffffffff168473ffffffffffffffffffffffffffffffffffffffff167f655a0cf9c8db81512be9a76dc1c5ae5380b8816ce6ad659cd61b715e2999d59a60015486866040516105d593929190611459565b60405180910390a3600160008190555050505050565b60015481565b7f000000000000000000000000000000000000000000000000000000000000000081565b600063bc197c8160e01b905095945050505050565b60026020528060005260406000206000915090508060000154908060010160009054906101000a900473ffffffffffffffffffffffffffffffffffffffff16908060020154908060030154908060040160009054906101000a900473ffffffffffffffffffffffffffffffffffffffff16908060050154905086565b600060647f000000000000000000000000000000000000000000000000000000000000000060646106d79190611490565b60026000858152602001908152602001600020600301546106f89190611490565b6107029190611519565b9050919050565b60026000540361074e576040517f08c379a0000000000000000000000000000000000000000000000000000000008152600401610745906112b8565b60405180910390fd5b600260008190555060008111610799576040517f08c379a000000000000000000000000000000000000000000000000000000000815260040161079090611596565b60405180910390fd5b6000816107a5846106a6565b6107af9190611490565b905060006002600085815260200190815260200160002090506000841180156107da57506001548411155b610819576040517f08c379a000000000000000000000000000000000000000000000000000000000815260040161081090611602565b60405180910390fd5b8134101561085c576040517f08c379a000000000000000000000000000000000000000000000000000000000815260040161085390611694565b60405180910390fd5b60008160050154116108a3576040517f08c379a000000000000000000000000000000000000000000000000000000000815260040161089a90611700565b60405180910390fd5b8060040160009054906101000a900473ffffffffffffffffffffffffffffffffffffffff1673ffffffffffffffffffffffffffffffffffffffff166108fc82600301549081150290604051600060405180830381858888f19350505050158015610911573d6000803e3d6000fd5b5080600501600081548092919061092790611720565b91905055508060010160009054906101000a900473ffffffffffffffffffffffffffffffffffffffff1673ffffffffffffffffffffffffffffffffffffffff1663f242432a30338460020154876040518563ffffffff1660e01b81526004016109939493929190611401565b600060405180830381600087803b1580156109ad57600080fd5b505af11580156109c1573d6000803e3d6000fd5b505050503373ffffffffffffffffffffffffffffffffffffffff168160040160009054906101000a900473ffffffffffffffffffffffffffffffffffffffff1673ffffffffffffffffffffffffffffffffffffffff168260010160009054906101000a900473ffffffffffffffffffffffffffffffffffffffff1673ffffffffffffffffffffffffffffffffffffffff167f8b4c9c8a607d67b321582dd8461041b1dc2ceeca70c8b7f37f8e02095cf2e76d8785600201548660030154604051610a8d93929190611459565b60405180910390a4505060016000819055505050565b600063f23a6e6160e01b905095945050505050565b60007f01ffc9a7000000000000000000000000000000000000000000000000000000007bffffffffffffffffffffffffffffffffffffffffffffffffffffffff1916827bffffffffffffffffffffffffffffffffffffffffffffffffffffffff1916149050919050565b6000604051905090565b600080fd5b600080fd5b60007fffffffff0000000000000000000000000000000000000000000000000000000082169050919050565b610b6b81610b36565b8114610b7657600080fd5b50565b600081359050610b8881610b62565b92915050565b600060208284031215610ba457610ba3610b2c565b5b6000610bb284828501610b79565b91505092915050565b60008115159050919050565b610bd081610bbb565b82525050565b6000602082019050610beb6000830184610bc7565b92915050565b600073ffffffffffffffffffffffffffffffffffffffff82169050919050565b6000610c1c82610bf1565b9050919050565b610c2c81610c11565b82525050565b6000602082019050610c476000830184610c23565b92915050565b6000610c5882610bf1565b9050919050565b6000610c6a82610c4d565b9050919050565b610c7a81610c5f565b8114610c8557600080fd5b50565b600081359050610c9781610c71565b92915050565b6000819050919050565b610cb081610c9d565b8114610cbb57600080fd5b50565b600081359050610ccd81610ca7565b92915050565b60008060008060808587031215610ced57610cec610b2c565b5b6000610cfb87828801610c88565b9450506020610d0c87828801610cbe565b9350506040610d1d87828801610cbe565b9250506060610d2e87828801610cbe565b91505092959194509250565b610d4381610c9d565b82525050565b6000602082019050610d5e6000830184610d3a565b92915050565b610d6d81610c4d565b8114610d7857600080fd5b50565b600081359050610d8a81610d64565b92915050565b600080fd5b6000601f19601f8301169050919050565b7f4e487b7100000000000000000000000000000000000000000000000000000000600052604160045260246000fd5b610dde82610d95565b810181811067ffffffffffffffff82111715610dfd57610dfc610da6565b5b80604052505050565b6000610e10610b22565b9050610e1c8282610dd5565b919050565b600067ffffffffffffffff821115610e3c57610e3b610da6565b5b602082029050602081019050919050565b600080fd5b6000610e65610e6084610e21565b610e06565b90508083825260208201905060208402830185811115610e8857610e87610e4d565b5b835b81811015610eb15780610e9d8882610cbe565b845260208401935050602081019050610e8a565b5050509392505050565b600082601f830112610ed057610ecf610d90565b5b8135610ee0848260208601610e52565b91505092915050565b600080fd5b600067ffffffffffffffff821115610f0957610f08610da6565b5b610f1282610d95565b9050602081019050919050565b82818337600083830152505050565b6000610f41610f3c84610eee565b610e06565b905082815260208101848484011115610f5d57610f5c610ee9565b5b610f68848285610f1f565b509392505050565b600082601f830112610f8557610f84610d90565b5b8135610f95848260208601610f2e565b91505092915050565b600080600080600060a08688031215610fba57610fb9610b2c565b5b6000610fc888828901610d7b565b9550506020610fd988828901610d7b565b945050604086013567ffffffffffffffff811115610ffa57610ff9610b31565b5b61100688828901610ebb565b935050606086013567ffffffffffffffff81111561102757611026610b31565b5b61103388828901610ebb565b925050608086013567ffffffffffffffff81111561105457611053610b31565b5b61106088828901610f70565b9150509295509295909350565b61107681610b36565b82525050565b6000602082019050611091600083018461106d565b92915050565b6000602082840312156110ad576110ac610b2c565b5b60006110bb84828501610cbe565b91505092915050565b6000819050919050565b60006110e96110e46110df84610bf1565b6110c4565b610bf1565b9050919050565b60006110fb826110ce565b9050919050565b600061110d826110f0565b9050919050565b61111d81611102565b82525050565b600060c0820190506111386000830189610d3a565b6111456020830188611114565b6111526040830187610d3a565b61115f6060830186610d3a565b61116c6080830185610c23565b61117960a0830184610d3a565b979650505050505050565b6000806040838503121561119b5761119a610b2c565b5b60006111a985828601610cbe565b92505060206111ba85828601610cbe565b9150509250929050565b600080600080600060a086880312156111e0576111df610b2c565b5b60006111ee88828901610d7b565b95505060206111ff88828901610d7b565b945050604061121088828901610cbe565b935050606061122188828901610cbe565b925050608086013567ffffffffffffffff81111561124257611241610b31565b5b61124e88828901610f70565b9150509295509295909350565b600082825260208201905092915050565b7f5265656e7472616e637947756172643a207265656e7472616e742063616c6c00600082015250565b60006112a2601f8361125b565b91506112ad8261126c565b602082019050919050565b600060208201905081810360008301526112d181611295565b9050919050565b7f5072696365206d7573742062652067726561746572207468616e207a65726f00600082015250565b600061130e601f8361125b565b9150611319826112d8565b602082019050919050565b6000602082019050818103600083015261133d81611301565b9050919050565b7f4e487b7100000000000000000000000000000000000000000000000000000000600052601160045260246000fd5b600061137e82610c9d565b91507fffffffffffffffffffffffffffffffffffffffffffffffffffffffffffffffff82036113b0576113af611344565b5b600182019050919050565b6113c481610c4d565b82525050565b600082825260208201905092915050565b50565b60006113eb6000836113ca565b91506113f6826113db565b600082019050919050565b600060a08201905061141660008301876113bb565b61142360208301866113bb565b6114306040830185610d3a565b61143d6060830184610d3a565b818103608083015261144e816113de565b905095945050505050565b600060608201905061146e6000830186610d3a565b61147b6020830185610d3a565b6114886040830184610d3a565b949350505050565b600061149b82610c9d565b91506114a683610c9d565b9250817fffffffffffffffffffffffffffffffffffffffffffffffffffffffffffffffff04831182151516156114df576114de611344565b5b828202905092915050565b7f4e487b7100000000000000000000000000000000000000000000000000000000600052601260045260246000fd5b600061152482610c9d565b915061152f83610c9d565b92508261153f5761153e6114ea565b5b828204905092915050565b7f416d6f756e74206d7573742062652067726561746572207468616e207a65726f600082015250565b600061158060208361125b565b915061158b8261154a565b602082019050919050565b600060208201905081810360008301526115af81611573565b9050919050565b7f4974656d20646f65736e27742065786973740000000000000000000000000000600082015250565b60006115ec60128361125b565b91506115f7826115b6565b602082019050919050565b6000602082019050818103600083015261161b816115df565b9050919050565b7f4e6f7420656e6f75676820657468657220746f20636f766572206974656d207060008201527f7269636520616e64206d61726b65742066656500000000000000000000000000602082015250565b600061167e60338361125b565b915061168982611622565b604082019050919050565b600060208201905081810360008301526116ad81611671565b9050919050565b7f4974656d20616c726561647920736f6c64000000000000000000000000000000600082015250565b60006116ea60118361125b565b91506116f5826116b4565b602082019050919050565b60006020820190508181036000830152611719816116dd565b9050919050565b600061172b82610c9d565b91506000820361173e5761173d611344565b5b60018203905091905056fea2646970667358221220e8f16305ff9fb4636c39ede26e4d02a5ae9374635a78307640cd1e9101aac46f64736f6c634300080d0033",
  "immutableReferences": {
    "2553": [
      {
        "length": 32,
        "start": 782
      }
    ],
    "2555": [
      {
        "length": 32,
        "start": 1523
      },
      {
        "length": 32,
        "start": 1708
      }
    ]
  },
  "source": "// SPDX-License-Identifier: MIT\r\npragma solidity ^0.8.4;\r\n\r\nimport \"@openzeppelin/contracts/token/ERC721/IERC721.sol\";\r\nimport \"@openzeppelin/contracts/token/ERC1155/IERC1155.sol\";\r\nimport \"@openzeppelin/contracts/security/ReentrancyGuard.sol\";\r\nimport \"@openzeppelin/contracts/token/ERC1155/utils/ERC1155Holder.sol\";\r\n\r\ncontract Marketplace is ReentrancyGuard, ERC1155Holder {\r\n\r\n    address payable public immutable feeAccount;\r\n    uint public immutable feePercent;\r\n    uint public itemCount;\r\n\r\n    struct Item {\r\n        uint itemId;\r\n        IERC1155 certificate;\r\n        uint tokenId;\r\n        uint price;\r\n        address payable seller;\r\n        uint stock;\r\n    }\r\n\r\n    event Offered (\r\n        uint itemId,\r\n        address indexed nft,\r\n        uint tokenId,\r\n        uint price,\r\n        address indexed seller\r\n    );\r\n\r\n    event Bought (\r\n        uint itemId,\r\n        address indexed nft,\r\n        uint tokenId,\r\n        uint price,\r\n        address indexed seller,\r\n        address indexed buyer\r\n    );\r\n\r\n    mapping(uint => Item) public items;\r\n\r\n    constructor(uint _feePercent) {\r\n        feeAccount = payable(msg.sender);\r\n        feePercent = _feePercent;\r\n    }\r\n\r\n    function makeItem(IERC1155 certificate, uint tokenId, uint price, uint amount) external nonReentrant {\r\n        require(price > 0, \"Price must be greater than zero\");\r\n        \r\n        itemCount++;\r\n\r\n        certificate.safeTransferFrom(msg.sender, address(this), tokenId, amount, \"\");\r\n\r\n        items[itemCount] = Item(\r\n            itemCount,\r\n            certificate,\r\n            tokenId,\r\n            price,\r\n            payable(msg.sender),\r\n            amount\r\n        );\r\n\r\n        emit Offered(\r\n            itemCount,\r\n            address(certificate),\r\n            tokenId,\r\n            price,\r\n            msg.sender\r\n        );\r\n    }\r\n\r\n    function purchaseItem(uint itemId, uint256 amount) external payable nonReentrant {\r\n        require(amount > 0, \"Amount must be greater than zero\");\r\n        \r\n        uint totalPrice = getTotalPrice(itemId) * amount;\r\n        Item storage item = items[itemId];\r\n        require(itemId > 0 && itemId <= itemCount, \"Item doesn't exist\");\r\n        require(msg.value >= totalPrice, \"Not enough ether to cover item price and market fee\");\r\n        require(item.stock > 0, \"Item already sold\");\r\n\r\n        item.seller.transfer(item.price);\r\n        item.stock--;\r\n        item.certificate.safeTransferFrom(address(this), msg.sender, item.tokenId, amount, \"\");\r\n        emit Bought(\r\n            itemId,\r\n            address(item.certificate),\r\n            item.tokenId,\r\n            item.price,\r\n            item.seller,\r\n            msg.sender\r\n        );\r\n    }\r\n\r\n    function getTotalPrice(uint itemId) view public returns(uint) {\r\n        return items[itemId].price * (100 * feePercent)/100;\r\n    }\r\n}",
  "sourcePath": "C:\\My Projects\\attest\\smart_contracts\\lvNFT\\contracts\\Marketplace.sol",
  "compiler": {
    "name": "solc",
    "version": "0.8.13+commit.abaa5c0e.Emscripten.clang"
  },
  "schemaVersion": "3.4.7",
  "updatedAt": "2022-08-16T09:03:29.910Z",
  "devdoc": {
    "kind": "dev",
    "methods": {
      "supportsInterface(bytes4)": {
        "details": "See {IERC165-supportsInterface}."
      }
    },
    "version": 1
  },
  "userdoc": {
    "kind": "user",
    "methods": {},
    "version": 1
  }
}